:0403000090EF16F074
:1010000000010000000A00000064000000E8030086
:101010000010270000A086010040420F0080969833
:101020000000E1F50500CA9A3B00803F0020410026
:10103000C842007A44401C4650C34724744997185C
:101040004BBCBE4C6B6E4E03155079AD60F34971CD
:1010500000803FCDCC3DD7233C12833AB7D138C670
:101060002737388635C0D633CC2B32708930E7DB52
:101070002EE53C1E42A20D576F726F7564202D2025
:10108000526167686164200D0A0056303D25342E98
:1010900032662D2D543D25342E326600576F726F07
:1010A0007564202D2052616768616400256300002B
:1010B000440E556E000E566ED7EF0CF0250E6C18D0
:1010C000D8B408D040C0D9FF41C0DAFF6CC0DFFF00
:1010D000D5EF0CF0000E666E000E656E000E5E6EB3
:1010E000000E5D6E42C0F6FF43C0F7FF0800F550EA
:1010F00094EC18F0D8A032D0000E666E000E656E2B
:1011000065C00FF066C010F0000E126E0A0E116E70
:1011100015EC18F00FC065F010C066F0D00E4A6EE6
:10112000FF0E4B6E42C0F6FF43C0F7FF0800F550BC
:101130004C6E4D6A4A504C264B504D224C50652601
:101140004D506622424A432A42C0F6FF43C0F7FF91
:101150000800F55094EC18F0D8B0D2D742C0F6FF92
:1011600043C0F7FF0800F5502E0AD8A42ED05E8C9D
:10117000424A432A000E6B6E000E6A6E1BD06AC094
:101180000FF06BC010F0000E126E0A0E116E15EC0F
:1011900018F042C0F6FF43C0F7FF0800F5500F26D5
:1011A000000E1022D00E0F246A6EFF0E10206B6E00
:1011B000424A432A42C0F6FF43C0F7FF0800F550F9
:1011C00094EC18F0D8A062D0DAD7000E6B6E000E47
:1011D0006A6E5E885BD05E846DD06A506B10D8B446
:1011E0000AD057506A5C58506B58D8B004D06AC0C7
:1011F00057F06BC058F06550575C66505858D8B0DF
:1012000005D05750655E5850665A0DD0000E666E78
:10121000000E656E08D040C0D9FF41C0DAFF200E35
:10122000DF6E404A412A6506D8A066066528F3E1CC
:101230006628D8B40FD0EFD753C0D9FF54C0DAFF17
:1012400040C0E1FF41C0E2FFDFCFE7FF534A542A2D
:10125000404A412A5706D8A058065728EDE1582899
:10126000D8B4A5D3E9D755C0D9FF56C0DAFFDF50AF
:101270006C6E020E5526000E56226C0E536E000E3A
:10128000546E000E586E010E576EA7D742C0F6FF7F
:1012900043C0F7FF424A432A0800F5CF6CF06C5078
:1012A000000AD8B491D3630AD8B4DDD7050AD8B4FC
:1012B00092D7E3D7070E5E14D8B4EED25EA804D05E
:1012C000000E6B6E060E6A6E55C0D9FF56C0DAFF6F
:1012D000DECF67F0DECF68F0DDCF69F0030E552674
:1012E000000E562269AE10D067C001F068C002F04F
:1012F00069C003F03BEC18F001C067F002C068F071
:1013000003C069F0030E5D12000E646E000E636E82
:10131000675068106910D8B483D0820E4A6EFF0EF1
:101320004B6E67C04CF068C04DF069C04EF06AC0AB
:101330004FF0100E05D0D8904F324E324D324C3215
:10134000E82EF9D74C504A24636E000E4B20646E91
:101350006306D8A0640663C00FF064C010F0000EEE
:10136000126E030E116E15EC18F00FC063F010C072
:1013700064F063C007F064C008F0000E0A6E0A0E45
:10138000096E6FEC15F007C063F008C064F064AE3E
:1013900003D06306D8A0640663500008EBEC0CF0A1
:1013A00024C05FF025C060F026C061F05FC015F07A
:1013B00060C016F061C017F067C018F068C019F07F
:1013C00069C01AF09CEC13F015C05FF016C060F015
:1013D00017C061F05FC001F060C002F061C003F0AF
:1013E000000E046E800E056E3F0E066EE0EC14F0EB
:1013F000D8B004D06306D8A0640612D05FC001F054
:1014000060C002F061C003F0000E046E200E056E95
:10141000410E066EE0EC14F0D8A002D0634A642AB4
:101420006BBE06D06B501BE10D0E6A5CD8B017D0B6
:1014300067C02EF068C02FF069C030F06A50EFEC42
:101440000EF024C031F025C032F026C033F01FEC7E
:1014500011F02EC067F02FC068F030C069F064BE94
:1014600006D064501EE10A0E635CD8B01AD06750F3
:1014700068106910D8B451D067C02BF068C02CF048
:1014800069C02DF022EC13F02B502C102D102E10D3
:10149000D8B464BE42D0645004E1020E635CD8A0AC
:1014A0003CD05FC001F060C002F061C003F0700E7C
:1014B000046E890E056E400E066EE0EC14F0D8B096
:1014C00002D0F70E01D0F80E6326FF0E642263509F
:1014D000EBEC0CF024C05FF025C060F026C061F09A
:1014E00067C001F068C002F069C003F05FC004F09B
:1014F00060C005F061C006F0F5EC11F001C059F0D4
:1015000002C05AF003C05BF004C05CF0000E676ECE
:10151000000E686E000E696E32D067C02BF068C096
:101520002CF069C02DF022EC13F02BC059F02CC028
:101530005AF02DC05BF02EC05CF067C03AF068C076
:101540003BF069C03CF059C009F05AC00AF05BC0DA
:101550000BF05CC00CF0F2EC16F009C03DF00AC0D4
:101560003EF00BC03FF090EC17F03AC067F03BC084
:1015700068F03CC069F0000E646E000E636E010EF0
:101580006C6E0A0E6C18D8B418D06C50040D010E95
:10159000F324F66E100EF420F76E0900F550595C36
:1015A0000900F5505A580900F5505B580900F550EC
:1015B0005C58D8A002D06C2AE4D76CC04AF04B6AC1
:1015C0004ABE4B066A504A266B504B2263504A264D
:1015D00064504B224A50655E4B50665A6A506B10FD
:1015E000D8B403D06506D8A06606030E5D144A6E13
:1015F000000E5E144B6E4A504B10D8B40CD008D07D
:1016000040C0D9FF41C0DAFF200EDF6E404A412AB8
:101610006506D8A0660666BE05D06650F1E1650491
:10162000D8B0EED7030E5D144A6E000E5E144B6EFA
:101630004A504B10D8B44FD040C0D9FF41C0DAFF58
:101640002D0E46D059C001F05AC002F05BC003F025
:101650005CC004F06C50040D010EF324F66E100E05
:10166000F420F76E0900F5CF05F00900F5CF06F07C
:101670000900F5CF07F00A00F5CF08F0B1EC15F03E
:1016800001C05FF002C060F003C061F004C062F00E
:101690005FC001F060C002F061C003F062C004F0FE
:1016A0000A0E056E000E066E000E076E000E086E26
:1016B0002AEC16F001C05FF002C060F003C061F0D8
:1016C00004C062F05F50300F40C0D9FF41C0DAFF64
:1016D000DF6E404A412A6C066C28D8B40CD0B2D7D1
:1016E00040C0D9FF41C0DAFF300EDF6E404A412AC8
:1016F0006306D8A0640664BE05D06450F1E16304BB
:10170000D8B0EED76BBE09D06B5004E1090E6A5C0D
:10171000D8A003D0080E6C6E02D06AC06CF06C507A
:101720006A5E000E6CBEFF0E6B5A6C50D8B408D0C7
:1017300040C0D9FF41C0DAFF2E0EDF6E404A412A79
:101740006C50EBEC0CF024C050F025C051F026C0DA
:1017500052F067C018F068C019F069C01AF050C0A4
:1017600015F051C016F052C017F09CEC13F015C0E4
:101770002BF016C02CF017C02DF022EC13F02BC06C
:1017800059F02CC05AF02DC05BF02EC05CF06FD029
:1017900059C001F05AC002F05BC003F05CC004F015
:1017A0006C50040D010EF324F66E100EF420F76E4B
:1017B0000900F5CF05F00900F5CF06F00900F5CFD7
:1017C00007F00A00F5CF08F0B1EC15F001C05FF0AA
:1017D00002C060F003C061F004C062F05FC001F0BD
:1017E00060C002F061C003F062C004F00A0E056E32
:1017F000000E066E000E076E000E086E2AEC16F044
:1018000001C05FF002C060F003C061F004C062F08C
:101810005F50300F40C0D9FF41C0DAFFDF6E404A51
:10182000412A59C001F05AC002F05BC003F05CC00D
:1018300004F06C50040D010EF324F66E100EF4202B
:10184000F76E0900F5CF05F00900F5CF06F00900A5
:10185000F5CF07F00A00F5CF08F02AEC16F001C02A
:1018600059F002C05AF003C05BF004C05CF06C0693
:101870006C28D8B40CD08CD740C0D9FF41C0DAFF57
:10188000300EDF6E404A412A6A06D8A06B066A50C5
:101890006B10D8B48CD0F0D76A506B10D8A408D095
:1018A00059505A105B105C10D8A402D06A4A6B2AB7
:1018B000800E6CBE7F0E4A6E6A506C5C6B50800A64
:1018C0004A58D8B003D06AC06CF010D06B50800A70
:1018D0004A6E6C506A5C800E6CBE7F0E4A58D8B05F
:1018E00005D06C506A6E6B6A6ABE6B0665506610F6
:1018F000D8B40DD0030E5D144A6E000E5E144B6E0C
:101900004A504B10D8B403D06506D8A066065EAC2A
:1019100013D065506A5C6B50800A4A6E6650800A2C
:101920004A58D8B005D06A50655E6B50665A04D0EC
:10193000000E666E000E656E800E6CBE7F0E4A6EE7
:1019400065506C5C6650800A4A58D8B007D06C501D
:10195000655E000E6CBEFF0E665A04D0000E666E09
:10196000000E656E65506610D8B40FD040C0D9FF28
:1019700041C0DAFF200EDF6E404A412A6506D8A03A
:10198000660665506610D8A4F1D7030E5D144A6E42
:10199000000E5E144B6E4A504B10D8B408D040C0B5
:1019A000D9FF41C0DAFF2D0EDF6E404A412A42C006
:1019B000F6FF43C0F7FF424A432A0800F5CF6CF018
:1019C0006C50D8A45EEF08F040C0D9FF41C0DAFFE8
:1019D000000EDF6E12002A6E2AAE01D12A6C2A5048
:1019E000800A120FD8A091D0000E126E030E116E55
:1019F000000E0A6E0A0E096E000E046E640E036E6F
:101A00002A50016E026A01BE0206F2EC15F001C016
:101A100007F002C008F06FEC15F0090E07240F6EF6
:101A2000000E0820106E15EC18F0500E0F24F66E04
:101A3000100E1020F76E0900F5CF18F00900F5CF51
:101A400019F00A00F5CF1AF0000E0A6E640E096E46
:101A50002A50076E086A07BE08066FEC15F0120ED2
:101A600007240F6E000E0820106E000E126E030E7B
:101A7000116E15EC18F0500E0F24F66E100E10209B
:101A8000F76E0900F5CF15F00900F5CF16F00A0042
:101A9000F5CF17F09CEC13F015C027F016C028F016
:101AA00017C029F027C015F028C016F029C017F07C
:101AB000000E126E030E116E000E046E0A0E036EFF
:101AC0002A50016E026A01BE0206F2EC15F001C056
:101AD0000FF002C010F015EC18F0500E0F24F66E47
:101AE000100E1020F76E0900F5CF18F00900F5CFA1
:101AF00019F00A00F5CF1AF09CEC13F015C024F091
:101B000016C025F017C026F012002A50800A750F63
:101B1000D8A053D0000E0A6E0A0E096E2A50076E26
:101B2000086A07BE08066FEC15F0090E07240F6E51
:101B3000000E0820106E000E126E030E116E15ECD2
:101B400018F0500E0F24F66E100E1020F76E0900DC
:101B5000F5CF15F00900F5CF16F00A00F5CF17F014
:101B6000000E126E030E116E000E046E0A0E036E4E
:101B70002A50016E026A01BE0206F2EC15F001C0A5
:101B80000FF002C010F015EC18F0500E0F24F66E96
:101B9000100E1020F76E0900F5CF18F00900F5CFF0
:101BA00019F00A00F5CF1AF09CEC13F015C024F0E0
:101BB00016C025F017C026F012002A50030D500E53
:101BC000F324F66E100EF420F76E0900F5CF24F022
:101BD0000900F5CF25F00A00F5CF26F012002A50B3
:101BE000800A120FD8A091D0000E126E030E116E53
:101BF000000E0A6E0A0E096E000E046E640E036E6D
:101C00002A50016E026A01BE0206F2EC15F001C014
:101C100007F002C008F06FEC15F0090E07240F6EF4
:101C2000000E0820106E15EC18F0290E0F24F66E29
:101C3000100E1020F76E0900F5CF18F00900F5CF4F
:101C400019F00A00F5CF1AF0000E0A6E640E096E44
:101C50002A50076E086A07BE08066FEC15F0120ED0
:101C600007240F6E000E0820106E000E126E030E79
:101C7000116E15EC18F0290E0F24F66E100E1020C0
:101C8000F76E0900F5CF15F00900F5CF16F00A0040
:101C9000F5CF17F09CEC13F015C027F016C028F014
:101CA00017C029F027C015F028C016F029C017F07A
:101CB000000E126E030E116E000E046E0A0E036EFD
:101CC0002A50016E026A01BE0206F2EC15F001C054
:101CD0000FF002C010F015EC18F0290E0F24F66E6C
:101CE000100E1020F76E0900F5CF18F00900F5CF9F
:101CF00019F00A00F5CF1AF09CEC13F015C024F08F
:101D000016C025F017C026F012002A50800A750F61
:101D1000D8A053D0000E0A6E0A0E096E2A50076E24
:101D2000086A07BE08066FEC15F0090E07240F6E4F
:101D3000000E0820106E000E126E030E116E15ECD0
:101D400018F0290E0F24F66E100E1020F76E090001
:101D5000F5CF15F00900F5CF16F00A00F5CF17F012
:101D6000000E126E030E116E000E046E0A0E036E4C
:101D70002A50016E026A01BE0206F2EC15F001C0A3
:101D80000FF002C010F015EC18F0290E0F24F66EBB
:101D9000100E1020F76E0900F5CF18F00900F5CFEE
:101DA00019F00A00F5CF1AF09CEC13F015C024F0DE
:101DB00016C025F017C026F012002A50030D290E78
:101DC000F324F66E100EF420F76E0900F5CF24F020
:101DD0000900F5CF25F00A00F5CF26F012002D6E90
:101DE0006D0E2D649FD0000E126E030E116E000E4C
:101DF0000A6E0A0E096E000E046E640E036E2DC08C
:101E000001F0026AF2EC15F001C007F002C008F020
:101E10006FEC15F0090E07240F6E000E0820106EEF
:101E200015EC18F0500E0F24F66E100E1020F76E01
:101E30000900F5CF18F00900F5CF19F00A00F5CF29
:101E40001AF0000E0A6E640E096E2DC007F0086AC3
:101E50006FEC15F0120E07240F6E000E0820106EA6
:101E6000000E126E030E116E15EC18F0500E0F24BA
:101E7000F66E100E1020F76E0900F5CF15F0090070
:101E8000F5CF16F00A00F5CF17F09CEC13F015C053
:101E90002AF016C02BF017C02CF0000E126E030EA5
:101EA000116E000E046E0A0E036E2DC001F0026A60
:101EB000F2EC15F001C00FF002C010F015EC18F0B4
:101EC000500E0F24F66E100E1020F76E0900F5CF9D
:101ED00018F00900F5CF19F00A00F5CF1AF02AC062
:101EE00015F02BC016F02CC017F09CEC13F015C0A9
:101EF00027F016C028F017C029F027C015F028C019
:101F000016F029C017F0000E186E000E196E3F0E65
:101F10001A6E9CEC13F015C024F016C025F017C003
:101F200026F012000A0E2D6463D0000E126E030E0E
:101F3000116E000E046E0A0E036E2DC001F0026ACF
:101F4000F2EC15F001C00FF002C010F015EC18F023
:101F5000500E0F24F66E100E1020F76E0900F5CF0C
:101F600018F00900F5CF19F00A00F5CF1AF0000EAD
:101F70000A6E0A0E096E2DC007F0086A6FEC15F0A4
:101F8000090E07240F6E000E0820106E000E126E50
:101F9000030E116E15EC18F0500E0F24F66E100E95
:101FA0001020F76E0900F5CF15F00900F5CF16F0F7
:101FB0000A00F5CF17F09CEC13F015C02AF016C0FC
:101FC0002BF017C02CF02AC015F02BC016F02CC037
:101FD00017F0000E186E000E196E3F0E1A6E9CEC74
:101FE00013F015C024F016C025F017C026F012001B
:101FF0002D50030D500EF324F66E100EF420F76EE4
:102000000900F5CF15F00900F5CF16F00A00F5CF5D
:1020100017F0000E186E000E196E3F0E1A6E9CEC33
:1020200013F015C024F016C025F017C026F01200DA
:10203000000EF26E00EC18F04DEC18F0C5EC18F044
:10204000C1EC16F00B0E026EB80E016E28EC18F003
:102050000C0E20EC17F0800E406E000E416E9C0EB0
:10206000426E100E436E58EC08F0010E0B6E010E1E
:102070006FEC17F0800E0F6E000E106E71EC18F002
:10208000070E026ED00E016E28EC18F00C0E20EC3C
:1020900017F0030E026EE80E016E28EC18F0800EA9
:1020A000406E000E416E770E426E100E436E58EC7D
:1020B00008F0800E026E000E036E5FEC18F0030E47
:1020C000026EE80E016E28EC18F00400000E7B6E24
:1020D000020E7B6401D02FD0020E7B18D8A412D040
:1020E0007B5028EC15F07B50030D6E0EF324D96E57
:1020F000000EF420DA6E28C0DEFF29C0DEFF2AC001
:10210000DEFF17D07B505DEC16F028C077F029C0B9
:1021100078F02AC079F07B50030D6E0EF324D96E4F
:10212000000EF420DA6E77C0DEFF78C0DEFF79C0E3
:10213000DEFF7B2ACDD7010E0B6E010E6FEC17F080
:10214000800E406E000E416E8A0E426E100E436E7F
:102150006EC044F06FC045F070C046F074C047F0E8
:1021600075C048F076C049F058EC08F0800E0F6E4C
:10217000000E106E71EC18F0B1EC18F00009D8B434
:10218000A4D7A3EC18F07A6E83BE03D06D6A6D2AD3
:1021900001D06D6A6D326D3283506D187F0B6D18F2
:1021A000836E800E406E000E416EAC0E426E100EBD
:1021B000436E7AC044F0456A58EC08F07CC00BF0DE
:1021C0007E506FEC17F0800E0F6E000E106E71ECEB
:1021D00018F0800E026E000E036E5FEC18F0100E09
:1021E0007E187F10D8A40ED0020E7C187D10D8A4C3
:1021F00009D0000E7F6E010E7E6E000E7D6E020E07
:102200007C6E02D07E4A7F2A3F0E7A18D8A410D066
:102210000C0E20EC17F0000E7F6E010E7E6E000E8D
:102220007D6E020E7C6E7CC00BF07E506FEC17F062
:10223000010E026E2C0E016E28EC18F046D730C04D
:1022400034F0356A366A2F34343601E33580345041
:10225000396E33C034F0356A366A3234343601E3CD
:1022600035803450386E3950D8B40BD03850395C82
:10227000D8B00ED0395000083824346E180E3464AB
:1022800007D031C02EF032C02FF033C030F0120032
:102290003850D8B40BD03950385CD8B00ED0385044
:1022A00000083924346E180E346407D02EC02EF086
:1022B0002FC02FF030C030F01200060E376E30BE47
:1022C000378E33BE378C2F8EFF0E2E16FF0E2F1635
:1022D000000E3016328EFF0E3116FF0E3216000E33
:1022E00033163850395CD8B01BD0D89031363236DE
:1022F0003336380639503818D8B40DD0370637C0C1
:1023000034F0070E3416D8B406D0EFD7D890303258
:102310002F322E32392A38503918D8B41FD0F6D778
:102320003950385CD8B01AD0D8902E362F36303687
:10233000390639503818D8B40DD0370637C034F0C4
:10234000070E3416D8B406D0EFD7D89033323232D5
:102350003132382A38503918D8A4F7D737AE0CD0D4
:10236000FF0E2E1AFF0E2F1AFF0E301A010E2E2608
:10237000000E2F22000E302237AC0CD0FF0E311A87
:10238000FF0E321AFF0E331A010E3126000E3222D2
:10239000000E3322000E376E2E5031262F5032227F
:1023A0003050332233AE0ED0FF0E311AFF0E321AE8
:1023B000FF0E331A010E3126000E3222000E332298
:1023C000010E376E31C001F032C002F033C003F0AD
:1023D00039C004F037C005F089EC14F001C02EF0CC
:1023E00002C02FF003C030F0120003C007F0086AEB
:1023F000096A0234073601E3088007500F6E0F5058
:10240000D8A409D0000E016E000E026E000E036EFD
:10241000000E046E120006C007F0086A096A05344F
:10242000073601E3088007500E6E0E50D8A409D07D
:10243000000E016E000E026E000E036E000E046EA2
:102440001200028EFF0E0116FF0E0216000E03167A
:10245000058EFF0E0416FF0E0516000E0616000E62
:102460000A6E000E0B6E000E0C6E000E0D6E7F0ECF
:102470000F5E0E50980F0F5E180E0E6ED8900A3633
:102480000B360C360D360450015C055002580650D0
:102490000358D8A007D00450015E0550025A0650D8
:1024A000035A0A80D8900136023603360E2EE6D73C
:1024B0000FAE16D00F50800A970FD8B009D0000E7B
:1024C000016E000E026E000E036E000E046E12000E
:1024D000D8900D320C320B320A320F3EF9D715D09C
:1024E000170E0F640FD0000E016E000E026E000E6C
:1024F000036E000E046E1200D8900A360B360C36AE
:102500000D360F060F50D8A4F7D70AC001F00BC044
:1025100002F00CC003F00DC004F0120003340434C8
:102520000C6E0C50D8A409D0000E016E000E026E85
:10253000000E036E000E046E1200063407340B6E9C
:102540000B50D8A409D0000E016E000E026E000ED2
:10255000036E000E046E1200038EFF0E0116FF0EB6
:102560000216FF0E0316000E0416068EFF0E04164A
:10257000FF0E0516FF0E0616000E0716000E076E5C
:10258000000E086E000E096E000E0A6E7F0E0C5EC5
:102590000B50A00F0C5E200E0B6ED890073608363D
:1025A00009360A360450015C05500258065003589B
:1025B00007500458D8A009D00450015E0550025AB3
:1025C0000650035A0750045A0780D8900136023645
:1025D000033604360B2EE1D70CAE16D00C50800A11
:1025E0009F0FD8B009D0000E016E000E026E000ED3
:1025F000036E000E046E1200D8900A3209320832BF
:1026000007320C3EF9D715D01F0E0C640FD0000E08
:10261000016E000E026E000E036E000E046E1200BC
:10262000D8900736083609360A360C060C50D8A45E
:10263000F7D707C001F008C002F009C003F00AC0D4
:1026400004F012002DC02FF0306A316A2C342F367E
:1026500001E330802F50396E3950D8A409D0000ED4
:102660002B6E000E2C6E000E2D6E000E2E6E1200C4
:10267000170E2F6E2BC030F02CC031F02DC032F071
:102680002F28336E04D0D890323231323032332E8C
:10269000FAD73050346E2C8EFF0E2B16FF0E2C16F0
:1026A000000E2D162B50356E2C50366E2D50376E79
:1026B000386A8E0E395E39AE16D03950800A8F0FC7
:1026C000D8B009D0000E2B6E000E2C6E000E2D6EB1
:1026D000000E2E6E1200D890383237323632353234
:1026E000393EF9D715D0170E39640FD0000E2B6E76
:1026F000000E2C6E000E2D6E000E2E6E1200D89065
:10270000353636363736383639063950D8A4F7D705
:102710003450D8B408D0381E371E361E356C000E23
:1027200036223722382235C02BF036C02CF037C085
:102730002DF038C02EF0120017C01BF01C6A1D6A65
:1027400016341B3601E31C801B501E6E1E50D8A48D
:1027500007D0000E156E000E166E000E176E1200DA
:102760001AC01BF01C6A1D6A19341B3601E31C8059
:102770001B50236E2350D8A407D0000E156E000EF8
:10278000166E000E176E120023507B0F1E2617C008
:1027900023F01A50231A800E2316168E198EFF0E60
:1027A0001816FF0E1916000E1A16000E1F6E000ED8
:1027B000206E000E216E070E226E15A006D0185056
:1027C0001F26195020221A502122D8901732163273
:1027D0001532D890183619361A36222EEED7090E31
:1027E000226E15A006D018501F26195020221A500C
:1027F0002122D890173216321532D8902132203249
:102800001F32222EEED71FC001F020C002F021C0DF
:1028100003F01EC004F023C005F089EC14F001C0E1
:1028200015F002C016F003C017F012001BC01FF015
:10283000206A216A1A341F3601E320801F50266E59
:102840002650D8A407D0000E196E000E1A6E000E86
:102850001B6E12001EC01FF0206A216A1D341F3635
:1028600001E320801F50276E2750D8A407D0000E08
:10287000196E000E1A6E000E1B6E1200000E236EF3
:10288000000E246E000E256E2750890F265E1BC099
:1028900027F01E50271A800E27161A8EFF0E1916C3
:1028A000FF0E1A16000E1B161D8EFF0E1C16FF0EB5
:1028B0001D16000E1E16180E226ED89023362436D2
:1028C00025361C50195C1D501A581E501B58D8A094
:1028D00007D01C50195E1D501A5A1E501B5A2380D7
:1028E000D89019361A361B36222EE7D723C001F0AE
:1028F00024C002F025C003F026C004F027C005F074
:1029000089EC14F001C019F002C01AF003C01BF0EA
:1029100012000450D8B405D0015002100310D8A4FE
:102920000CD0000E016E000E026E000E036E12003F
:10293000042AD890033202320132000E0114066ECE
:10294000000E0214076EFE0E0314086E06500710E8
:102950000810D8B40CD0ECD7042A010E0126000EC2
:102960000222000E0322D890033202320132000EFE
:102970000114066E000E0214076EFF0E0314086E9B
:10298000065007100810D8B406D0E6D70406D89031
:1029900001360236033602BE03D0020E0460F6D7BB
:1029A00004A0029ED8900432045003120550D8A40B
:1029B000038E01C001F002C002F003C003F0120058
:1029C00003AE16D001C007F002C008F003C009F042
:1029D000071E081E091E072A000E08220922000EE3
:1029E0000724016E000E0820026E800E0920036E7F
:1029F00006AE16D004C007F005C008F006C009F006
:102A0000071E081E091E072A000E08220922000EB2
:102A10000724046E000E0820056E800E0920066E45
:102A2000000E011A000E021A800E031A000E041A7C
:102A3000000E051A800E061A0450015C055002585B
:102A400006500358D8B002D0D8901200D880120097
:102A5000336E3350B0EC17F001C031F002C032F0E9
:102A600031C00FF032C010F0000E126E050E116E64
:102A700015EC18F00FC015F010C016F0CDEC17F0E3
:102A800015C019F016C01AF017C01BF0C00E1C6E4E
:102A90007F0E1D6E440E1E6E16EC14F019C02BF046
:102AA0001AC02CF01BC02DF02BC015F02CC016F056
:102AB0002DC017F0000E186EC80E196E420E1A6E59
:102AC0009CEC13F015C02EF016C02FF017C030F09C
:102AD0002EC028F02FC029F030C02AF01200000EBE
:102AE0000C6E0AAE06D0096C0A1ED8B00A2A010E76
:102AF0000C6E08AE06D0076C081ED8B0082A010E6E
:102B00000C1A000E0E6E000E0D6E09500A10D8B48D
:102B10001CD0010E0B6E04D0D89009360A360B2A51
:102B20000AAEFAD7D8900D360E360950075C0A5017
:102B30000858D8A005D00950075E0A50085A0D80E1
:102B4000D8900A3209320B2EEDD70C50D8B404D0ED
:102B50000D6C0E1ED8B00E2A0DC007F00EC008F086
:102B60001200000E096E000E0A6E000E0B6E000EB3
:102B70000C6E0550061007100810D8B42AD0010EAC
:102B80000D6E06D0D89005360636073608360D2A63
:102B900008AEF8D7D89009360A360B360C360550F1
:102BA000015C065002580750035808500458D8A03A
:102BB00009D00550015E0650025A0750035A0850CA
:102BC000045A0980D89008320732063205320D2E99
:102BD000E1D709C001F00AC002F00BC003F00CC03D
:102BE00004F01200000E066E02AE06D0016C021E4A
:102BF000D8B0022A010E066E04AE04D0036C041E87
:102C0000D8B0042A03500410D8B418D0010E056EB1
:102C100004D0D89003360436052A04AEFAD7035000
:102C2000015C04500258D8A004D00350015E045047
:102C3000025AD89004320332052EF1D70650D8B488
:102C400004D0016C021ED8B0022A01C001F002C0FB
:102C500002F012000550061007100810D8B424D056
:102C6000010E096E06D0D8900536063607360836AE
:102C7000092A08AEF8D70550015C065002580750E3
:102C8000035808500458D8A008D00550015E0650DB
:102C9000025A0750035A0850045AD8900832073293
:102CA00006320532092EE7D701C001F002C002F05A
:102CB00003C003F004C004F01200306E3050B0ECDA
:102CC00017F001C02EF002C02FF02EC00FF02FC061
:102CD00010F0000E126E050E116E15EC18F00FC0FC
:102CE00015F010C016F0CDEC17F015C019F016C095
:102CF0001AF017C01BF0C00E1C6E7F0E1D6E440E26
:102D00001E6E16EC14F019C02BF01AC02CF01BC06C
:102D10002DF02BC028F02CC029F02DC02AF0120075
:102D20009A0EF66E310EF76E000EF86E00EEA0F001
:102D300010EE04F00900F5CFEEFFE550E150FAE1A6
:102D4000960EF66E310EF76E000EF86E00EE7CF009
:102D500010EE04F00900F5CFEEFFE550E150FAE186
:102D600000EE80F0200EEE6AE806FDE100EE6EF067
:102D70000E0EEE6AE806FDE1000EF86E000118EF97
:102D800010F083928396000E026E190E016E28ECED
:102D900018F0010E0B6E030E0B6401D00BD0030E66
:102DA00083EC18F0000E026E060E016E28EC18F08F
:102DB0000B2AF1D7020E83EC18F0000E0B6E030EF7
:102DC0000B6401D012000B50010DA00EF324D96E3C
:102DD000000EF420DA6EDF50096E000E4BEC17F097
:102DE0000B2AEDD78E0E116E06D0D8900C320B3216
:102DF0000A320932112A000E09140D6E000E0A144F
:102E00000E6E000E0B140F6EFF0E0C14106E0D5094
:102E10000E100F101010D8A4E8D709C001F00AC096
:102E200002F00BC003F011C004F0000E056E89EC37
:102E300014F001C009F002C00AF003C00BF0120048
:102E40000E6E1ED0010E096E000E4BEC17F0000E38
:102E5000026E020E016E28EC18F01200020E0B6ECC
:102E6000010E6FEC17F01200100E096E000E4BEC05
:102E700017F012000EC009F0010E4BEC17F0120013
:102E80000E50080AD8B4F0D7020AD8B4E7D7060A19
:102E9000D8B4D8D7EFD70A6E0AB002D0839201D047
:102EA0008382010EE9EC17F0010EE9EC17F083962E
:102EB00009380F0B83EC18F009500F0B83EC18F056
:102EC0000A50D8B405D0320E0400E82EFDD7120007
:102ED000000E026E020E016E28EC18F012000C6E4D
:102EE00009D0800E05D0C00E03D0900E01D0D00EB8
:102EF0000D6E0DD00B50010AD8B4F3D7030AD8B425
:102F0000F2D7010AD8B4F1D7070AD8B4F0D70C0425
:102F10000D260D508009096E000E4BEC17F01200C3
:102F20003D503E103F10D8B406D0000E3D1A000EA2
:102F30003E1A800E3F1A3AC02EF03BC02FF03CC024
:102F400030F03DC031F03EC032F03FC033F01FECF6
:102F500011F02EC03AF02FC03BF030C03CF0120010
:102F6000076E07C003F003460346C2500318C30BA5
:102F70000318C26EC282C2B2FED7C350C4CF03F0E0
:102F8000046A03C004F0036A0310056E0450066E61
:102F900005C001F006C002F01200000E186E16AE59
:102FA00006D0156C161ED8B0162A010E186E15C064
:102FB00001F016C002F0036A8E0E046E18C005F010
:102FC00089EC14F001C015F002C016F003C017F030
:102FD0001200046E000E066E000E056E03D0040093
:102FE000054A062A0450016E026A0550015C02502F
:102FF000800A036E0650800A0358D8A01200EFD74B
:103000000C0EC16E000E8D6E8DCF8CFF8CCF8BFFA2
:103010008BCF8AFF8ACF89FF92689368000E966EE5
:1030200096CF95FF800E946E12000F501102F3CFD1
:1030300013F0F4CF14F00F501202F3501426105076
:103040001102F350142613C00FF014C010F0120038
:10305000000E046E000E036E07D0C80E04000400BC
:10306000E82EFCD7034A042A0150035C025004589E
:10307000D8B01200F2D7015002100310D8B406D015
:10308000000E011A000E021A800E031A01C001F090
:1030900002C002F003C003F01200B896000EAC6E3E
:1030A000190EAF6E000EB06EAC84AC8A000EAB6E23
:1030B000AB88AB8EAECF01F0AECF01F0120009D0DD
:1030C00002C0D9FF03C0DAFFDF50BDEC18F0024A9E
:1030D000032A02C0D9FF03C0DAFFDF50D8B41200C0
:1030E000EFD709D00FC0D9FF10C0DAFFDF5020ECB6
:1030F00017F00F4A102A0FC0D9FF10C0DAFFDF50B7
:10310000D8B41200EFD7086E08C007F0073A835012
:1031100007180F0B0718836E010EE9EC17F0838672
:10312000040000F083961200036E000E026E3A0E49
:10313000036005D02F0E036402D0010E026E02C0A0
:1031400001F001301200ABB402D0ABA204D0AB98B6
:10315000AB8801D004009EAAFDD7AECF01F001508C
:103160001200ABB402D0ABA202D0AB98AB889EAA3F
:1031700002D0010E1200000E1200016E01D00400F8
:10318000ACA2FDD701C0ADFF1200000EC26EC2801E
:0E319000890EC06E120002000100280C01061C
:020000040020DA
:08000000FFFFFFFFFFFFFFFF00
:020000040030CA
:0E000000FF011F1FFF8385FF0FC00FE00F40A1
:00000001FF
